{
  "contractName": "DummyOracle",
  "abi": [
    {
      "anonymous": false,
      "inputs": [
        {
          "indexed": true,
          "internalType": "address",
          "name": "previousOwner",
          "type": "address"
        },
        {
          "indexed": true,
          "internalType": "address",
          "name": "newOwner",
          "type": "address"
        }
      ],
      "name": "OwnershipTransferred",
      "type": "event"
    },
    {
      "inputs": [],
      "name": "owner",
      "outputs": [
        {
          "internalType": "address",
          "name": "",
          "type": "address"
        }
      ],
      "stateMutability": "view",
      "type": "function"
    },
    {
      "inputs": [],
      "name": "renounceOwnership",
      "outputs": [],
      "stateMutability": "nonpayable",
      "type": "function"
    },
    {
      "inputs": [
        {
          "internalType": "address",
          "name": "newOwner",
          "type": "address"
        }
      ],
      "name": "transferOwnership",
      "outputs": [],
      "stateMutability": "nonpayable",
      "type": "function"
    },
    {
      "inputs": [
        {
          "internalType": "uint256",
          "name": "period",
          "type": "uint256"
        }
      ],
      "name": "getRainFall",
      "outputs": [
        {
          "internalType": "uint256",
          "name": "",
          "type": "uint256"
        }
      ],
      "stateMutability": "view",
      "type": "function"
    },
    {
      "inputs": [
        {
          "internalType": "uint256",
          "name": "period",
          "type": "uint256"
        },
        {
          "internalType": "uint256",
          "name": "data",
          "type": "uint256"
        }
      ],
      "name": "setRainFallData",
      "outputs": [],
      "stateMutability": "nonpayable",
      "type": "function"
    },
    {
      "inputs": [
        {
          "internalType": "address",
          "name": "token",
          "type": "address"
        }
      ],
      "name": "withdraw",
      "outputs": [],
      "stateMutability": "nonpayable",
      "type": "function"
    }
  ],
  "bytecode": "0x608060405234801561001057600080fd5b5060006100216100c460201b60201c565b9050806000806101000a81548173ffffffffffffffffffffffffffffffffffffffff021916908373ffffffffffffffffffffffffffffffffffffffff1602179055508073ffffffffffffffffffffffffffffffffffffffff16600073ffffffffffffffffffffffffffffffffffffffff167f8be0079c531659141344cd1fd0a4f28419497f9722a3daafe3b4186f6b6457e060405160405180910390a3506100cc565b600033905090565b610a6c806100db6000396000f3fe608060405234801561001057600080fd5b50600436106100625760003560e01c80633b07878d1461006757806351cff8d914610083578063715018a61461009f5780638da5cb5b146100a9578063f2fde38b146100c7578063f3d75d4a146100e3575b600080fd5b610081600480360381019061007c91906107f9565b610113565b005b61009d60048036038101906100989190610755565b6101ab565b005b6100a76103d0565b005b6100b161050a565b6040516100be91906108f9565b60405180910390f35b6100e160048036038101906100dc9190610755565b610533565b005b6100fd60048036038101906100f891906107a7565b6106dc565b60405161010a919061097d565b60405180910390f35b61011b6106f9565b73ffffffffffffffffffffffffffffffffffffffff1661013961050a565b73ffffffffffffffffffffffffffffffffffffffff161461018f576040517f08c379a00000000000000000000000000000000000000000000000000000000081526004016101869061095d565b60405180910390fd5b8060016000848152602001908152602001600020819055505050565b6101b36106f9565b73ffffffffffffffffffffffffffffffffffffffff166101d161050a565b73ffffffffffffffffffffffffffffffffffffffff1614610227576040517f08c379a000000000000000000000000000000000000000000000000000000000815260040161021e9061095d565b60405180910390fd5b600073ffffffffffffffffffffffffffffffffffffffff168173ffffffffffffffffffffffffffffffffffffffff1614156102af5761026461050a565b73ffffffffffffffffffffffffffffffffffffffff166108fc479081150290604051600060405180830381858888f193505050501580156102a9573d6000803e3d6000fd5b506103cd565b8073ffffffffffffffffffffffffffffffffffffffff1663a9059cbb6102d361050a565b8373ffffffffffffffffffffffffffffffffffffffff166370a08231306040518263ffffffff1660e01b815260040161030c91906108f9565b60206040518083038186803b15801561032457600080fd5b505afa158015610338573d6000803e3d6000fd5b505050506040513d601f19601f8201168201806040525081019061035c91906107d0565b6040518363ffffffff1660e01b8152600401610379929190610914565b602060405180830381600087803b15801561039357600080fd5b505af11580156103a7573d6000803e3d6000fd5b505050506040513d601f19601f820116820180604052508101906103cb919061077e565b505b50565b6103d86106f9565b73ffffffffffffffffffffffffffffffffffffffff166103f661050a565b73ffffffffffffffffffffffffffffffffffffffff161461044c576040517f08c379a00000000000000000000000000000000000000000000000000000000081526004016104439061095d565b60405180910390fd5b600073ffffffffffffffffffffffffffffffffffffffff1660008054906101000a900473ffffffffffffffffffffffffffffffffffffffff1673ffffffffffffffffffffffffffffffffffffffff167f8be0079c531659141344cd1fd0a4f28419497f9722a3daafe3b4186f6b6457e060405160405180910390a360008060006101000a81548173ffffffffffffffffffffffffffffffffffffffff021916908373ffffffffffffffffffffffffffffffffffffffff160217905550565b60008060009054906101000a900473ffffffffffffffffffffffffffffffffffffffff16905090565b61053b6106f9565b73ffffffffffffffffffffffffffffffffffffffff1661055961050a565b73ffffffffffffffffffffffffffffffffffffffff16146105af576040517f08c379a00000000000000000000000000000000000000000000000000000000081526004016105a69061095d565b60405180910390fd5b600073ffffffffffffffffffffffffffffffffffffffff168173ffffffffffffffffffffffffffffffffffffffff16141561061f576040517f08c379a00000000000000000000000000000000000000000000000000000000081526004016106169061093d565b60405180910390fd5b8073ffffffffffffffffffffffffffffffffffffffff1660008054906101000a900473ffffffffffffffffffffffffffffffffffffffff1673ffffffffffffffffffffffffffffffffffffffff167f8be0079c531659141344cd1fd0a4f28419497f9722a3daafe3b4186f6b6457e060405160405180910390a3806000806101000a81548173ffffffffffffffffffffffffffffffffffffffff021916908373ffffffffffffffffffffffffffffffffffffffff16021790555050565b600060016000838152602001908152602001600020549050919050565b600033905090565b600081359050610710816109f1565b92915050565b60008151905061072581610a08565b92915050565b60008135905061073a81610a1f565b92915050565b60008151905061074f81610a1f565b92915050565b60006020828403121561076757600080fd5b600061077584828501610701565b91505092915050565b60006020828403121561079057600080fd5b600061079e84828501610716565b91505092915050565b6000602082840312156107b957600080fd5b60006107c78482850161072b565b91505092915050565b6000602082840312156107e257600080fd5b60006107f084828501610740565b91505092915050565b6000806040838503121561080c57600080fd5b600061081a8582860161072b565b925050602061082b8582860161072b565b9150509250929050565b61083e816109a9565b82525050565b6000610851602683610998565b91507f4f776e61626c653a206e6577206f776e657220697320746865207a65726f206160008301527f64647265737300000000000000000000000000000000000000000000000000006020830152604082019050919050565b60006108b7602083610998565b91507f4f776e61626c653a2063616c6c6572206973206e6f7420746865206f776e65726000830152602082019050919050565b6108f3816109e7565b82525050565b600060208201905061090e6000830184610835565b92915050565b60006040820190506109296000830185610835565b61093660208301846108ea565b9392505050565b6000602082019050818103600083015261095681610844565b9050919050565b60006020820190508181036000830152610976816108aa565b9050919050565b600060208201905061099260008301846108ea565b92915050565b600082825260208201905092915050565b60006109b4826109c7565b9050919050565b60008115159050919050565b600073ffffffffffffffffffffffffffffffffffffffff82169050919050565b6000819050919050565b6109fa816109a9565b8114610a0557600080fd5b50565b610a11816109bb565b8114610a1c57600080fd5b50565b610a28816109e7565b8114610a3357600080fd5b5056fea2646970667358221220c94f80691a2dd47dd352ed3df2bf59241af7bfb63aff3a17b29f237158cc2dc064736f6c63430008000033",
  "immutableReferences": {},
  "source": "// SPDX-License-Identifier: MIT\r\npragma solidity 0.8.0;\r\n\r\nimport \"./libs/SafeBEP20.sol\";\r\nimport \"@openzeppelin/contracts/access/Ownable.sol\";\r\n\r\n/// @title DummyOracle\r\n/// @notice simple oracle for demo\r\n/// @author _bing\r\ncontract DummyOracle is Ownable{\r\n    \r\n\tmapping (uint256 => uint256) monthRainFall;\r\n\r\n\tfunction getRainFall(uint256 period)public view returns(uint256){\r\n\t\treturn monthRainFall[period];\r\n\t}\r\n\t\r\n\tfunction setRainFallData(uint256 period, uint256 data)public onlyOwner{\r\n\t\tmonthRainFall[period] = data;\r\n\t}\r\n\r\n\t//in case some user transfer their token into contract\r\n    function withdraw(address token) external onlyOwner {\r\n        if (token == address(0)) {\r\n            payable(owner()).transfer(address(this).balance);\r\n            return;\r\n        }\r\n        IBEP20(token).transfer(owner(), IBEP20(token).balanceOf(address(this)));\r\n    }\r\n}",
  "sourcePath": "D:\\blockchain\\solidity\\FarmerInsurance\\contracts\\DummyOracle.sol",
  "compiler": {
    "name": "solc",
    "version": "0.8.0+commit.c7dfd78e.Emscripten.clang"
  },
  "schemaVersion": "3.3.4",
  "updatedAt": "2021-06-15T05:05:05.395Z",
  "devdoc": {
    "author": "_bing",
    "kind": "dev",
    "methods": {
      "owner()": {
        "details": "Returns the address of the current owner."
      },
      "renounceOwnership()": {
        "details": "Leaves the contract without owner. It will not be possible to call `onlyOwner` functions anymore. Can only be called by the current owner. NOTE: Renouncing ownership will leave the contract without an owner, thereby removing any functionality that is only available to the owner."
      },
      "transferOwnership(address)": {
        "details": "Transfers ownership of the contract to a new account (`newOwner`). Can only be called by the current owner."
      }
    },
    "title": "DummyOracle",
    "version": 1
  },
  "userdoc": {
    "kind": "user",
    "methods": {},
    "notice": "simple oracle for demo",
    "version": 1
  }
}