{
  "contractName": "FarmInsurance",
  "abi": [
    {
      "inputs": [
        {
          "internalType": "address",
          "name": "_addr",
          "type": "address"
        }
      ],
      "stateMutability": "nonpayable",
      "type": "constructor"
    },
    {
      "anonymous": false,
      "inputs": [
        {
          "indexed": true,
          "internalType": "address",
          "name": "previousOwner",
          "type": "address"
        },
        {
          "indexed": true,
          "internalType": "address",
          "name": "newOwner",
          "type": "address"
        }
      ],
      "name": "OwnershipTransferred",
      "type": "event"
    },
    {
      "inputs": [],
      "name": "currentPeriod",
      "outputs": [
        {
          "internalType": "uint256",
          "name": "",
          "type": "uint256"
        }
      ],
      "stateMutability": "view",
      "type": "function"
    },
    {
      "inputs": [
        {
          "internalType": "address",
          "name": "",
          "type": "address"
        },
        {
          "internalType": "uint256",
          "name": "",
          "type": "uint256"
        }
      ],
      "name": "isClaimed",
      "outputs": [
        {
          "internalType": "bool",
          "name": "",
          "type": "bool"
        }
      ],
      "stateMutability": "view",
      "type": "function"
    },
    {
      "inputs": [
        {
          "internalType": "uint256",
          "name": "",
          "type": "uint256"
        }
      ],
      "name": "isInsuranceClaimable",
      "outputs": [
        {
          "internalType": "bool",
          "name": "",
          "type": "bool"
        }
      ],
      "stateMutability": "view",
      "type": "function"
    },
    {
      "inputs": [],
      "name": "owner",
      "outputs": [
        {
          "internalType": "address",
          "name": "",
          "type": "address"
        }
      ],
      "stateMutability": "view",
      "type": "function"
    },
    {
      "inputs": [
        {
          "internalType": "uint256",
          "name": "",
          "type": "uint256"
        }
      ],
      "name": "periodInsuranceBuyerPool",
      "outputs": [
        {
          "internalType": "uint256",
          "name": "",
          "type": "uint256"
        }
      ],
      "stateMutability": "view",
      "type": "function"
    },
    {
      "inputs": [
        {
          "internalType": "uint256",
          "name": "",
          "type": "uint256"
        }
      ],
      "name": "periodInsuranceProviderPool",
      "outputs": [
        {
          "internalType": "uint256",
          "name": "",
          "type": "uint256"
        }
      ],
      "stateMutability": "view",
      "type": "function"
    },
    {
      "inputs": [],
      "name": "renounceOwnership",
      "outputs": [],
      "stateMutability": "nonpayable",
      "type": "function"
    },
    {
      "inputs": [
        {
          "internalType": "address",
          "name": "newOwner",
          "type": "address"
        }
      ],
      "name": "transferOwnership",
      "outputs": [],
      "stateMutability": "nonpayable",
      "type": "function"
    },
    {
      "inputs": [
        {
          "internalType": "address",
          "name": "",
          "type": "address"
        },
        {
          "internalType": "uint256",
          "name": "",
          "type": "uint256"
        }
      ],
      "name": "userInsuranceBuy",
      "outputs": [
        {
          "internalType": "uint256",
          "name": "",
          "type": "uint256"
        }
      ],
      "stateMutability": "view",
      "type": "function"
    },
    {
      "inputs": [
        {
          "internalType": "address",
          "name": "",
          "type": "address"
        },
        {
          "internalType": "uint256",
          "name": "",
          "type": "uint256"
        }
      ],
      "name": "userInsuranceProvide",
      "outputs": [
        {
          "internalType": "uint256",
          "name": "",
          "type": "uint256"
        }
      ],
      "stateMutability": "view",
      "type": "function"
    },
    {
      "inputs": [],
      "name": "provideInsurance",
      "outputs": [],
      "stateMutability": "payable",
      "type": "function"
    },
    {
      "inputs": [],
      "name": "buyInsurance",
      "outputs": [],
      "stateMutability": "payable",
      "type": "function"
    },
    {
      "inputs": [
        {
          "internalType": "uint256",
          "name": "period",
          "type": "uint256"
        }
      ],
      "name": "claimInsurance",
      "outputs": [],
      "stateMutability": "nonpayable",
      "type": "function"
    },
    {
      "inputs": [],
      "name": "settleInsurance",
      "outputs": [],
      "stateMutability": "nonpayable",
      "type": "function"
    },
    {
      "inputs": [
        {
          "internalType": "address",
          "name": "_addr",
          "type": "address"
        }
      ],
      "name": "setOracleAddress",
      "outputs": [],
      "stateMutability": "nonpayable",
      "type": "function"
    },
    {
      "inputs": [
        {
          "internalType": "address",
          "name": "token",
          "type": "address"
        }
      ],
      "name": "withdraw",
      "outputs": [],
      "stateMutability": "nonpayable",
      "type": "function"
    }
  ],
  "bytecode": "0x60806040523480156200001157600080fd5b5060405162001aaf38038062001aaf83398181016040528101906200003791906200015e565b6000620000496200013f60201b60201c565b9050806000806101000a81548173ffffffffffffffffffffffffffffffffffffffff021916908373ffffffffffffffffffffffffffffffffffffffff1602179055508073ffffffffffffffffffffffffffffffffffffffff16600073ffffffffffffffffffffffffffffffffffffffff167f8be0079c531659141344cd1fd0a4f28419497f9722a3daafe3b4186f6b6457e060405160405180910390a3506000600181905550603260098190555080600860006101000a81548173ffffffffffffffffffffffffffffffffffffffff021916908373ffffffffffffffffffffffffffffffffffffffff16021790555050620001d8565b600033905090565b6000815190506200015881620001be565b92915050565b6000602082840312156200017157600080fd5b6000620001818482850162000147565b91505092915050565b600062000197826200019e565b9050919050565b600073ffffffffffffffffffffffffffffffffffffffff82169050919050565b620001c9816200018a565b8114620001d557600080fd5b50565b6118c780620001e86000396000f3fe6080604052600436106100f35760003560e01c8063715018a61161008a578063b1f7da2e11610059578063b1f7da2e146102fc578063b85cb31d14610313578063f2fde38b14610350578063f85920d814610379576100f3565b8063715018a61461027357806371618c791461028a5780637eb27b88146102945780638da5cb5b146102d1576100f3565b80634ef535db116100c65780634ef535db1461019357806351cff8d9146101d0578063562beba8146101f95780636b865e3214610236576100f3565b806306040618146100f857806317ea277314610123578063463524211461012d5780634c69c00f1461016a575b600080fd5b34801561010457600080fd5b5061010d6103a2565b60405161011a9190611650565b60405180910390f35b61012b6103a8565b005b34801561013957600080fd5b50610154600480360381019061014f91906113c7565b6104da565b6040516101619190611650565b60405180910390f35b34801561017657600080fd5b50610191600480360381019061018c919061139e565b6104ff565b005b34801561019f57600080fd5b506101ba60048036038101906101b591906113c7565b6105bf565b6040516101c79190611650565b60405180910390f35b3480156101dc57600080fd5b506101f760048036038101906101f2919061139e565b6105e4565b005b34801561020557600080fd5b50610220600480360381019061021b91906113c7565b610809565b60405161022d91906115d5565b60405180910390f35b34801561024257600080fd5b5061025d6004803603810190610258919061142c565b610838565b60405161026a91906115d5565b60405180910390f35b34801561027f57600080fd5b50610288610858565b005b610292610992565b005b3480156102a057600080fd5b506102bb60048036038101906102b6919061142c565b610ac4565b6040516102c89190611650565b60405180910390f35b3480156102dd57600080fd5b506102e6610adc565b6040516102f39190611591565b60405180910390f35b34801561030857600080fd5b50610311610b05565b005b34801561031f57600080fd5b5061033a6004803603810190610335919061142c565b610bcf565b6040516103479190611650565b60405180910390f35b34801561035c57600080fd5b506103776004803603810190610372919061139e565b610be7565b005b34801561038557600080fd5b506103a0600480360381019061039b919061142c565b610d90565b005b60015481565b6103e3670de0b6b3a7640000346103bf9190611703565b6002600060015481526020019081526020016000205461123790919063ffffffff16565b6002600060015481526020019081526020016000208190555061047b670de0b6b3a7640000346104139190611703565b6004600061041f61124d565b73ffffffffffffffffffffffffffffffffffffffff1673ffffffffffffffffffffffffffffffffffffffff168152602001908152602001600020600060015481526020019081526020016000205461123790919063ffffffff16565b6004600061048761124d565b73ffffffffffffffffffffffffffffffffffffffff1673ffffffffffffffffffffffffffffffffffffffff1681526020019081526020016000206000600154815260200190815260200160002081905550565b6005602052816000526040600020602052806000526040600020600091509150505481565b61050761124d565b73ffffffffffffffffffffffffffffffffffffffff16610525610adc565b73ffffffffffffffffffffffffffffffffffffffff161461057b576040517f08c379a000000000000000000000000000000000000000000000000000000000815260040161057290611630565b60405180910390fd5b80600860006101000a81548173ffffffffffffffffffffffffffffffffffffffff021916908373ffffffffffffffffffffffffffffffffffffffff16021790555050565b6004602052816000526040600020602052806000526040600020600091509150505481565b6105ec61124d565b73ffffffffffffffffffffffffffffffffffffffff1661060a610adc565b73ffffffffffffffffffffffffffffffffffffffff1614610660576040517f08c379a000000000000000000000000000000000000000000000000000000000815260040161065790611630565b60405180910390fd5b600073ffffffffffffffffffffffffffffffffffffffff168173ffffffffffffffffffffffffffffffffffffffff1614156106e85761069d610adc565b73ffffffffffffffffffffffffffffffffffffffff166108fc479081150290604051600060405180830381858888f193505050501580156106e2573d6000803e3d6000fd5b50610806565b8073ffffffffffffffffffffffffffffffffffffffff1663a9059cbb61070c610adc565b8373ffffffffffffffffffffffffffffffffffffffff166370a08231306040518263ffffffff1660e01b81526004016107459190611591565b60206040518083038186803b15801561075d57600080fd5b505afa158015610771573d6000803e3d6000fd5b505050506040513d601f19601f820116820180604052508101906107959190611455565b6040518363ffffffff1660e01b81526004016107b29291906115ac565b602060405180830381600087803b1580156107cc57600080fd5b505af11580156107e0573d6000803e3d6000fd5b505050506040513d601f19601f820116820180604052508101906108049190611403565b505b50565b60076020528160005260406000206020528060005260406000206000915091509054906101000a900460ff1681565b60066020528060005260406000206000915054906101000a900460ff1681565b61086061124d565b73ffffffffffffffffffffffffffffffffffffffff1661087e610adc565b73ffffffffffffffffffffffffffffffffffffffff16146108d4576040517f08c379a00000000000000000000000000000000000000000000000000000000081526004016108cb90611630565b60405180910390fd5b600073ffffffffffffffffffffffffffffffffffffffff1660008054906101000a900473ffffffffffffffffffffffffffffffffffffffff1673ffffffffffffffffffffffffffffffffffffffff167f8be0079c531659141344cd1fd0a4f28419497f9722a3daafe3b4186f6b6457e060405160405180910390a360008060006101000a81548173ffffffffffffffffffffffffffffffffffffffff021916908373ffffffffffffffffffffffffffffffffffffffff160217905550565b6109cd670de0b6b3a7640000346109a99190611703565b6003600060015481526020019081526020016000205461123790919063ffffffff16565b60036000600154815260200190815260200160002081905550610a65670de0b6b3a7640000346109fd9190611703565b60056000610a0961124d565b73ffffffffffffffffffffffffffffffffffffffff1673ffffffffffffffffffffffffffffffffffffffff168152602001908152602001600020600060015481526020019081526020016000205461123790919063ffffffff16565b60056000610a7161124d565b73ffffffffffffffffffffffffffffffffffffffff1673ffffffffffffffffffffffffffffffffffffffff1681526020019081526020016000206000600154815260200190815260200160002081905550565b60026020528060005260406000206000915090505481565b60008060009054906101000a900473ffffffffffffffffffffffffffffffffffffffff16905090565b610b0d61124d565b73ffffffffffffffffffffffffffffffffffffffff16610b2b610adc565b73ffffffffffffffffffffffffffffffffffffffff1614610b81576040517f08c379a0000000000000000000000000000000000000000000000000000000008152600401610b7890611630565b60405180910390fd5b610b89611255565b60066000600154815260200190815260200160002060006101000a81548160ff02191690831515021790555060016000815480929190610bc8906117a5565b9190505550565b60036020528060005260406000206000915090505481565b610bef61124d565b73ffffffffffffffffffffffffffffffffffffffff16610c0d610adc565b73ffffffffffffffffffffffffffffffffffffffff1614610c63576040517f08c379a0000000000000000000000000000000000000000000000000000000008152600401610c5a90611630565b60405180910390fd5b600073ffffffffffffffffffffffffffffffffffffffff168173ffffffffffffffffffffffffffffffffffffffff161415610cd3576040517f08c379a0000000000000000000000000000000000000000000000000000000008152600401610cca90611610565b60405180910390fd5b8073ffffffffffffffffffffffffffffffffffffffff1660008054906101000a900473ffffffffffffffffffffffffffffffffffffffff1673ffffffffffffffffffffffffffffffffffffffff167f8be0079c531659141344cd1fd0a4f28419497f9722a3daafe3b4186f6b6457e060405160405180910390a3806000806101000a81548173ffffffffffffffffffffffffffffffffffffffff021916908373ffffffffffffffffffffffffffffffffffffffff16021790555050565b6001548110610dd4576040517f08c379a0000000000000000000000000000000000000000000000000000000008152600401610dcb906115f0565b60405180910390fd5b60076000610de061124d565b73ffffffffffffffffffffffffffffffffffffffff1673ffffffffffffffffffffffffffffffffffffffff168152602001908152602001600020600082815260200190815260200160002060009054906101000a900460ff1615610e79576040517f08c379a0000000000000000000000000000000000000000000000000000000008152600401610e70906115f0565b60405180910390fd5b600160076000610e8761124d565b73ffffffffffffffffffffffffffffffffffffffff1673ffffffffffffffffffffffffffffffffffffffff168152602001908152602001600020600083815260200190815260200160002060006101000a81548160ff0219169083151502179055506000610f246002600084815260200190815260200160002054600360008581526020019081526020016000205461123790919063ffffffff16565b9050600060046000610f3461124d565b73ffffffffffffffffffffffffffffffffffffffff1673ffffffffffffffffffffffffffffffffffffffff168152602001908152602001600020600084815260200190815260200160002054118015610fab57506006600083815260200190815260200160002060009054906101000a900460ff16155b156110ad57600061104160026000858152602001908152602001600020546110338460046000610fd961124d565b73ffffffffffffffffffffffffffffffffffffffff1673ffffffffffffffffffffffffffffffffffffffff16815260200190815260200160002060008881526020019081526020016000205461131e90919063ffffffff16565b61133490919063ffffffff16565b905061104b61124d565b73ffffffffffffffffffffffffffffffffffffffff166108fc61107f670de0b6b3a76400008461133490919063ffffffff16565b9081150290604051600060405180830381858888f193505050501580156110aa573d6000803e3d6000fd5b50505b6000600560006110bb61124d565b73ffffffffffffffffffffffffffffffffffffffff1673ffffffffffffffffffffffffffffffffffffffff16815260200190815260200160002060008481526020019081526020016000205411801561113157506006600083815260200190815260200160002060009054906101000a900460ff165b156112335760006111c760036000858152602001908152602001600020546111b9846005600061115f61124d565b73ffffffffffffffffffffffffffffffffffffffff1673ffffffffffffffffffffffffffffffffffffffff16815260200190815260200160002060008881526020019081526020016000205461131e90919063ffffffff16565b61133490919063ffffffff16565b90506111d161124d565b73ffffffffffffffffffffffffffffffffffffffff166108fc611205670de0b6b3a76400008461133490919063ffffffff16565b9081150290604051600060405180830381858888f19350505050158015611230573d6000803e3d6000fd5b50505b5050565b60008183611245919061167c565b905092915050565b600033905090565b6000600954600860009054906101000a900473ffffffffffffffffffffffffffffffffffffffff1673ffffffffffffffffffffffffffffffffffffffff1663f3d75d4a6001546040518263ffffffff1660e01b81526004016112b79190611650565b60206040518083038186803b1580156112cf57600080fd5b505afa1580156112e3573d6000803e3d6000fd5b505050506040513d601f19601f820116820180604052508101906113079190611455565b1115611316576000905061131b565b600190505b90565b6000818361132c9190611703565b905092915050565b6000818361134291906116d2565b905092915050565b6000813590506113598161184c565b92915050565b60008151905061136e81611863565b92915050565b6000813590506113838161187a565b92915050565b6000815190506113988161187a565b92915050565b6000602082840312156113b057600080fd5b60006113be8482850161134a565b91505092915050565b600080604083850312156113da57600080fd5b60006113e88582860161134a565b92505060206113f985828601611374565b9150509250929050565b60006020828403121561141557600080fd5b60006114238482850161135f565b91505092915050565b60006020828403121561143e57600080fd5b600061144c84828501611374565b91505092915050565b60006020828403121561146757600080fd5b600061147584828501611389565b91505092915050565b6114878161175d565b82525050565b6114968161176f565b82525050565b60006114a9600a8361166b565b91507f21636c61696d61626c65000000000000000000000000000000000000000000006000830152602082019050919050565b60006114e960268361166b565b91507f4f776e61626c653a206e6577206f776e657220697320746865207a65726f206160008301527f64647265737300000000000000000000000000000000000000000000000000006020830152604082019050919050565b600061154f60208361166b565b91507f4f776e61626c653a2063616c6c6572206973206e6f7420746865206f776e65726000830152602082019050919050565b61158b8161179b565b82525050565b60006020820190506115a6600083018461147e565b92915050565b60006040820190506115c1600083018561147e565b6115ce6020830184611582565b9392505050565b60006020820190506115ea600083018461148d565b92915050565b600060208201905081810360008301526116098161149c565b9050919050565b60006020820190508181036000830152611629816114dc565b9050919050565b6000602082019050818103600083015261164981611542565b9050919050565b60006020820190506116656000830184611582565b92915050565b600082825260208201905092915050565b60006116878261179b565b91506116928361179b565b9250827fffffffffffffffffffffffffffffffffffffffffffffffffffffffffffffffff038211156116c7576116c66117ee565b5b828201905092915050565b60006116dd8261179b565b91506116e88361179b565b9250826116f8576116f761181d565b5b828204905092915050565b600061170e8261179b565b91506117198361179b565b9250817fffffffffffffffffffffffffffffffffffffffffffffffffffffffffffffffff0483118215151615611752576117516117ee565b5b828202905092915050565b60006117688261177b565b9050919050565b60008115159050919050565b600073ffffffffffffffffffffffffffffffffffffffff82169050919050565b6000819050919050565b60006117b08261179b565b91507fffffffffffffffffffffffffffffffffffffffffffffffffffffffffffffffff8214156117e3576117e26117ee565b5b600182019050919050565b7f4e487b7100000000000000000000000000000000000000000000000000000000600052601160045260246000fd5b7f4e487b7100000000000000000000000000000000000000000000000000000000600052601260045260246000fd5b6118558161175d565b811461186057600080fd5b50565b61186c8161176f565b811461187757600080fd5b50565b6118838161179b565b811461188e57600080fd5b5056fea2646970667358221220572d4bf4ee5ac03635af5e9918ac83861c955d6d4999ffad09b08b6dba19e3cd64736f6c63430008000033",
  "immutableReferences": {},
  "source": "// SPDX-License-Identifier: MIT\r\npragma solidity 0.8.0;\r\n\r\nimport \"./libs/SafeBEP20.sol\";\r\nimport \"./DummyOracle.sol\";\r\nimport \"@openzeppelin/contracts/access/Ownable.sol\";\r\nimport \"@openzeppelin/contracts/utils/math/SafeMath.sol\";\r\n\r\n/// @title Farm Insurance\r\n/// @notice Simple farm insurance implement\r\n/// @author _bing\r\ncontract FarmInsurance is Ownable{\r\n    using SafeMath for uint;\r\n\tusing SafeBEP20 for IBEP20;\r\n\t\r\n\tuint256 public currentPeriod;\r\n\tmapping (uint256 => uint256) public periodInsuranceProviderPool;\r\n\tmapping (uint256 => uint256) public periodInsuranceBuyerPool;\r\n\tmapping (address => mapping(uint256 => uint256)) public userInsuranceProvide;\r\n\tmapping (address => mapping(uint256 => uint256)) public userInsuranceBuy;\r\n\t\r\n\tmapping (uint256 => bool) public isInsuranceClaimable;\r\n\tmapping (address => mapping(uint256 => bool)) public isClaimed;\r\n\t\r\n\tDummyOracle oracle;\r\n\tuint256 rainFallThreshold;\r\n\t\r\n    constructor (address _addr) {\r\n\t\tcurrentPeriod = 0;\r\n\t\trainFallThreshold = 50;\r\n\t\toracle = DummyOracle(_addr);\r\n\t}\r\n\t\r\n\tfunction provideInsurance() public payable{\r\n\t\tperiodInsuranceProviderPool[currentPeriod] = periodInsuranceProviderPool[currentPeriod].add(msg.value* 10 **18);\r\n\t\tuserInsuranceProvide[_msgSender()][currentPeriod] = userInsuranceProvide[_msgSender()][currentPeriod].add(msg.value* 10 **18);\r\n\t}\r\n\t\r\n\tfunction buyInsurance() public payable{\r\n\t\tperiodInsuranceBuyerPool[currentPeriod] = periodInsuranceBuyerPool[currentPeriod].add(msg.value* 10 **18);\r\n\t\tuserInsuranceBuy[_msgSender()][currentPeriod] = userInsuranceBuy[_msgSender()][currentPeriod].add(msg.value* 10 **18);\r\n\t}\r\n\t\r\n\tfunction claimInsurance(uint256 period) public {\r\n\t\trequire(period < currentPeriod, \"!claimable\");\r\n\t\trequire(!isClaimed[_msgSender()][period], \"!claimable\");\r\n\t\tisClaimed[_msgSender()][period] = true;\r\n\t\t\r\n\t\tuint pool = periodInsuranceBuyerPool[period].add(periodInsuranceProviderPool[period]);\r\n\t\t//provide insurance get reward if not insurance not claimable\r\n\t\tif(userInsuranceProvide[_msgSender()][period] > 0 && !isInsuranceClaimable[period]){\r\n\t\t\tuint256 reward = userInsuranceProvide[_msgSender()][period].mul(pool).div(periodInsuranceProviderPool[period]);\r\n\t\t\tpayable(_msgSender()).transfer(reward.div(10 ** 18));\r\n\t\t}\r\n\t\t//buy insurance get reward if insurance claimable\r\n\t\tif(userInsuranceBuy[_msgSender()][period] > 0 && isInsuranceClaimable[period]){\r\n\t\t\tuint256 reward = userInsuranceBuy[_msgSender()][period].mul(pool).div(periodInsuranceBuyerPool[period]);\r\n\t\t\tpayable(_msgSender()).transfer(reward.div(10 ** 18));\r\n\t\t}\r\n\t}\r\n\t\r\n\t//settle and close current period\r\n    function settleInsurance() public onlyOwner{\r\n\t\tisInsuranceClaimable[currentPeriod] = getOracleData();\r\n\t\tcurrentPeriod++;\r\n\t}\r\n\t\r\n\tfunction getOracleData() private returns(bool){\r\n\t\t//if rain enough, insurance not claimable\r\n\t\tif(oracle.getRainFall(currentPeriod) > rainFallThreshold){\r\n\t\t\treturn false;\r\n\t\t}\r\n\t\t//if lack rain, insurance claimable\r\n\t\treturn true;\r\n\t}\r\n\t\r\n\tfunction setOracleAddress(address _addr)public onlyOwner{\r\n\t\toracle = DummyOracle(_addr);\r\n\t}\r\n\r\n\t//in case some user transfer their token into contract\r\n    function withdraw(address token) external onlyOwner {\r\n        if (token == address(0)) {\r\n            payable(owner()).transfer(address(this).balance);\r\n            return;\r\n        }\r\n        IBEP20(token).transfer(owner(), IBEP20(token).balanceOf(address(this)));\r\n    }\r\n}",
  "sourcePath": "D:/blockchain/solidity/FarmerInsurance/contracts/FarmInsurance.sol",
  "compiler": {
    "name": "solc",
    "version": "0.8.0+commit.c7dfd78e.Emscripten.clang"
  },
  "schemaVersion": "3.3.4",
  "updatedAt": "2021-06-15T05:05:05.398Z",
  "devdoc": {
    "author": "_bing",
    "kind": "dev",
    "methods": {
      "owner()": {
        "details": "Returns the address of the current owner."
      },
      "renounceOwnership()": {
        "details": "Leaves the contract without owner. It will not be possible to call `onlyOwner` functions anymore. Can only be called by the current owner. NOTE: Renouncing ownership will leave the contract without an owner, thereby removing any functionality that is only available to the owner."
      },
      "transferOwnership(address)": {
        "details": "Transfers ownership of the contract to a new account (`newOwner`). Can only be called by the current owner."
      }
    },
    "title": "Farm Insurance",
    "version": 1
  },
  "userdoc": {
    "kind": "user",
    "methods": {},
    "notice": "Simple farm insurance implement",
    "version": 1
  }
}